{
  "contractName": "Election",
  "abi": [
    {
      "constant": true,
      "inputs": [],
      "name": "startDate",
      "outputs": [
        {
          "name": "",
          "type": "uint256"
        }
      ],
      "payable": false,
      "stateMutability": "view",
      "type": "function"
    },
    {
      "constant": true,
      "inputs": [],
      "name": "totalVotes",
      "outputs": [
        {
          "name": "",
          "type": "uint256"
        }
      ],
      "payable": false,
      "stateMutability": "view",
      "type": "function"
    },
    {
      "constant": true,
      "inputs": [],
      "name": "candidatesCount",
      "outputs": [
        {
          "name": "",
          "type": "uint256"
        }
      ],
      "payable": false,
      "stateMutability": "view",
      "type": "function"
    },
    {
      "constant": true,
      "inputs": [
        {
          "name": "",
          "type": "uint256"
        }
      ],
      "name": "candidates",
      "outputs": [
        {
          "name": "id",
          "type": "uint256"
        },
        {
          "name": "name",
          "type": "string"
        },
        {
          "name": "party",
          "type": "string"
        },
        {
          "name": "Type",
          "type": "string"
        },
        {
          "name": "votes",
          "type": "uint256"
        }
      ],
      "payable": false,
      "stateMutability": "view",
      "type": "function"
    },
    {
      "constant": true,
      "inputs": [],
      "name": "description",
      "outputs": [
        {
          "name": "",
          "type": "string"
        }
      ],
      "payable": false,
      "stateMutability": "view",
      "type": "function"
    },
    {
      "constant": true,
      "inputs": [],
      "name": "electionName",
      "outputs": [
        {
          "name": "",
          "type": "string"
        }
      ],
      "payable": false,
      "stateMutability": "view",
      "type": "function"
    },
    {
      "constant": true,
      "inputs": [],
      "name": "owner",
      "outputs": [
        {
          "name": "",
          "type": "address"
        }
      ],
      "payable": false,
      "stateMutability": "view",
      "type": "function"
    },
    {
      "constant": true,
      "inputs": [],
      "name": "votersCount",
      "outputs": [
        {
          "name": "",
          "type": "uint256"
        }
      ],
      "payable": false,
      "stateMutability": "view",
      "type": "function"
    },
    {
      "constant": true,
      "inputs": [],
      "name": "endDate",
      "outputs": [
        {
          "name": "",
          "type": "uint256"
        }
      ],
      "payable": false,
      "stateMutability": "view",
      "type": "function"
    },
    {
      "constant": true,
      "inputs": [
        {
          "name": "",
          "type": "uint256"
        }
      ],
      "name": "admin",
      "outputs": [
        {
          "name": "email",
          "type": "string"
        },
        {
          "name": "password",
          "type": "string"
        }
      ],
      "payable": false,
      "stateMutability": "view",
      "type": "function"
    },
    {
      "constant": true,
      "inputs": [
        {
          "name": "",
          "type": "uint256"
        }
      ],
      "name": "voters",
      "outputs": [
        {
          "name": "id",
          "type": "uint256"
        },
        {
          "name": "name",
          "type": "string"
        },
        {
          "name": "age",
          "type": "uint256"
        },
        {
          "name": "phone",
          "type": "string"
        },
        {
          "name": "pollingStation",
          "type": "string"
        },
        {
          "name": "constituency",
          "type": "string"
        },
        {
          "name": "region",
          "type": "string"
        },
        {
          "name": "voterAddress",
          "type": "address"
        },
        {
          "name": "voted",
          "type": "bool"
        },
        {
          "name": "authorized",
          "type": "bool"
        }
      ],
      "payable": false,
      "stateMutability": "view",
      "type": "function"
    },
    {
      "inputs": [],
      "payable": false,
      "stateMutability": "nonpayable",
      "type": "constructor"
    },
    {
      "anonymous": false,
      "inputs": [
        {
          "indexed": false,
          "name": "id",
          "type": "uint256"
        },
        {
          "indexed": false,
          "name": "name",
          "type": "string"
        },
        {
          "indexed": false,
          "name": "party",
          "type": "string"
        },
        {
          "indexed": false,
          "name": "votes",
          "type": "uint256"
        }
      ],
      "name": "electionUpdated",
      "type": "event"
    },
    {
      "constant": false,
      "inputs": [
        {
          "name": "email",
          "type": "string"
        },
        {
          "name": "password",
          "type": "string"
        }
      ],
      "name": "LogAdmin",
      "outputs": [],
      "payable": false,
      "stateMutability": "nonpayable",
      "type": "function"
    },
    {
      "constant": false,
      "inputs": [
        {
          "name": "_name",
          "type": "string"
        },
        {
          "name": "_description",
          "type": "string"
        },
        {
          "name": "_startDate",
          "type": "uint256"
        },
        {
          "name": "_endDate",
          "type": "uint256"
        }
      ],
      "name": "election",
      "outputs": [],
      "payable": false,
      "stateMutability": "nonpayable",
      "type": "function"
    },
    {
      "constant": false,
      "inputs": [
        {
          "name": "_name",
          "type": "string"
        },
        {
          "name": "_age",
          "type": "uint256"
        },
        {
          "name": "_phone",
          "type": "string"
        },
        {
          "name": "_pollingStation",
          "type": "string"
        },
        {
          "name": "_constituency",
          "type": "string"
        },
        {
          "name": "_region",
          "type": "string"
        }
      ],
      "name": "addVoters",
      "outputs": [],
      "payable": false,
      "stateMutability": "nonpayable",
      "type": "function"
    },
    {
      "constant": false,
      "inputs": [
        {
          "name": "_name",
          "type": "string"
        },
        {
          "name": "_party",
          "type": "string"
        },
        {
          "name": "_type",
          "type": "string"
        }
      ],
      "name": "addCandidate",
      "outputs": [],
      "payable": false,
      "stateMutability": "nonpayable",
      "type": "function"
    },
    {
      "constant": false,
      "inputs": [
        {
          "name": "_candidateId",
          "type": "uint256"
        },
        {
          "name": "_id",
          "type": "uint256"
        }
      ],
      "name": "vote",
      "outputs": [],
      "payable": false,
      "stateMutability": "nonpayable",
      "type": "function"
    }
  ],
  "bytecode": "0x6080604052600060055560006006553480156200001b57600080fd5b50620000d76040805190810160405280600981526020017f4e616e61204164646f00000000000000000000000000000000000000000000008152506040805190810160405280600381526020017f4e505000000000000000000000000000000000000000000000000000000000008152506040805190810160405280600c81526020017f507265736964656e7469616c00000000000000000000000000000000000000008152506200044e640100000000026401000000009004565b620001926040805190810160405280600b81526020017f4a6f686e204d6168616d610000000000000000000000000000000000000000008152506040805190810160405280600381526020017f4e444300000000000000000000000000000000000000000000000000000000008152506040805190810160405280600c81526020017f507265736964656e7469616c00000000000000000000000000000000000000008152506200044e640100000000026401000000009004565b6200024d6040805190810160405280601981526020017f43687269737469616e204b776162656e6120416e6472657773000000000000008152506040805190810160405280600381526020017f47554d00000000000000000000000000000000000000000000000000000000008152506040805190810160405280600c81526020017f507265736964656e7469616c00000000000000000000000000000000000000008152506200044e640100000000026401000000009004565b620003086040805190810160405280601181526020017f49766f72204b6f62696e6120477265656e0000000000000000000000000000008152506040805190810160405280600381526020017f43505000000000000000000000000000000000000000000000000000000000008152506040805190810160405280600c81526020017f507265736964656e7469616c00000000000000000000000000000000000000008152506200044e640100000000026401000000009004565b620003c36040805190810160405280600b81526020017f416b756120446f6e6b6f720000000000000000000000000000000000000000008152506040805190810160405280600381526020017f47505000000000000000000000000000000000000000000000000000000000008152506040805190810160405280600c81526020017f507265736964656e7469616c00000000000000000000000000000000000000008152506200044e640100000000026401000000009004565b620004486040805190810160405280601481526020017f6b79656979617734333740676d61696c2e636f6d0000000000000000000000008152506040805190810160405280600881526020017f70617373776f726400000000000000000000000000000000000000000000000081525062000519640100000000026401000000009004565b62000635565b60a06040519081016040528060065481526020018481526020018381526020018281526020016000815250600860006006548152602001908152602001600020600082015181600001556020820151816001019080519060200190620004b692919062000586565b506040820151816002019080519060200190620004d592919062000586565b506060820151816003019080519060200190620004f492919062000586565b5060808201518160040155905050600660008154809291906001019190505550505050565b6040805190810160405280838152602001828152506007600080815260200190815260200160002060008201518160000190805190602001906200055f92919062000586565b5060208201518160010190805190602001906200057e92919062000586565b509050505050565b828054600181600116156101000203166002900490600052602060002090601f016020900481019282601f10620005c957805160ff1916838001178555620005fa565b82800160010185558215620005fa579182015b82811115620005f9578251825591602001919060010190620005dc565b5b5090506200060991906200060d565b5090565b6200063291905b808211156200062e57600081600090555060010162000614565b5090565b90565b61202280620006456000396000f3fe6080604052600436106100e6576000357c0100000000000000000000000000000000000000000000000000000000900463ffffffff1680630b97bc86146100eb5780630d15fd77146101165780632d35a8a2146101415780633477ee2e1461016c5780633dd51854146103065780637284e4161461063457806385e8e7a7146106c45780638da5cb5b1461075457806398c07938146107ab578063ad71f8dc146107d6578063b384abef146109cc578063c24a0f8b14610a11578063d599a1c614610a3c578063da58c7d914610b5c578063e8aba3d314610e17578063f3d0d83314610f8a575b600080fd5b3480156100f757600080fd5b506101006110e9565b6040518082815260200191505060405180910390f35b34801561012257600080fd5b5061012b6110ef565b6040518082815260200191505060405180910390f35b34801561014d57600080fd5b506101566110f5565b6040518082815260200191505060405180910390f35b34801561017857600080fd5b506101a56004803603602081101561018f57600080fd5b81019080803590602001909291905050506110fb565b60405180868152602001806020018060200180602001858152602001848103845288818151815260200191508051906020019080838360005b838110156101f95780820151818401526020810190506101de565b50505050905090810190601f1680156102265780820380516001836020036101000a031916815260200191505b50848103835287818151815260200191508051906020019080838360005b8381101561025f578082015181840152602081019050610244565b50505050905090810190601f16801561028c5780820380516001836020036101000a031916815260200191505b50848103825286818151815260200191508051906020019080838360005b838110156102c55780820151818401526020810190506102aa565b50505050905090810190601f1680156102f25780820380516001836020036101000a031916815260200191505b509850505050505050505060405180910390f35b34801561031257600080fd5b50610632600480360360c081101561032957600080fd5b810190808035906020019064010000000081111561034657600080fd5b82018360208201111561035857600080fd5b8035906020019184600183028401116401000000008311171561037a57600080fd5b91908080601f016020809104026020016040519081016040528093929190818152602001838380828437600081840152601f19601f82011690508083019250505050505050919291929080359060200190929190803590602001906401000000008111156103e757600080fd5b8201836020820111156103f957600080fd5b8035906020019184600183028401116401000000008311171561041b57600080fd5b91908080601f016020809104026020016040519081016040528093929190818152602001838380828437600081840152601f19601f8201169050808301925050505050505091929192908035906020019064010000000081111561047e57600080fd5b82018360208201111561049057600080fd5b803590602001918460018302840111640100000000831117156104b257600080fd5b91908080601f016020809104026020016040519081016040528093929190818152602001838380828437600081840152601f19601f8201169050808301925050505050505091929192908035906020019064010000000081111561051557600080fd5b82018360208201111561052757600080fd5b8035906020019184600183028401116401000000008311171561054957600080fd5b91908080601f016020809104026020016040519081016040528093929190818152602001838380828437600081840152601f19601f820116905080830192505050505050509192919290803590602001906401000000008111156105ac57600080fd5b8201836020820111156105be57600080fd5b803590602001918460018302840111640100000000831117156105e057600080fd5b91908080601f016020809104026020016040519081016040528093929190818152602001838380828437600081840152601f19601f8201169050808301925050505050505091929192905050506112f9565b005b34801561064057600080fd5b506106496114be565b6040518080602001828103825283818151815260200191508051906020019080838360005b8381101561068957808201518184015260208101905061066e565b50505050905090810190601f1680156106b65780820380516001836020036101000a031916815260200191505b509250505060405180910390f35b3480156106d057600080fd5b506106d961155c565b6040518080602001828103825283818151815260200191508051906020019080838360005b838110156107195780820151818401526020810190506106fe565b50505050905090810190601f1680156107465780820380516001836020036101000a031916815260200191505b509250505060405180910390f35b34801561076057600080fd5b506107696115fa565b604051808273ffffffffffffffffffffffffffffffffffffffff1673ffffffffffffffffffffffffffffffffffffffff16815260200191505060405180910390f35b3480156107b757600080fd5b506107c061161f565b6040518082815260200191505060405180910390f35b3480156107e257600080fd5b506109ca600480360360608110156107f957600080fd5b810190808035906020019064010000000081111561081657600080fd5b82018360208201111561082857600080fd5b8035906020019184600183028401116401000000008311171561084a57600080fd5b91908080601f016020809104026020016040519081016040528093929190818152602001838380828437600081840152601f19601f820116905080830192505050505050509192919290803590602001906401000000008111156108ad57600080fd5b8201836020820111156108bf57600080fd5b803590602001918460018302840111640100000000831117156108e157600080fd5b91908080601f016020809104026020016040519081016040528093929190818152602001838380828437600081840152601f19601f8201169050808301925050505050505091929192908035906020019064010000000081111561094457600080fd5b82018360208201111561095657600080fd5b8035906020019184600183028401116401000000008311171561097857600080fd5b91908080601f016020809104026020016040519081016040528093929190818152602001838380828437600081840152601f19601f820116905080830192505050505050509192919290505050611625565b005b3480156109d857600080fd5b50610a0f600480360360408110156109ef57600080fd5b8101908080359060200190929190803590602001909291905050506116ea565b005b348015610a1d57600080fd5b50610a26611906565b6040518082815260200191505060405180910390f35b348015610a4857600080fd5b50610a7560048036036020811015610a5f57600080fd5b810190808035906020019092919050505061190c565b604051808060200180602001838103835285818151815260200191508051906020019080838360005b83811015610ab9578082015181840152602081019050610a9e565b50505050905090810190601f168015610ae65780820380516001836020036101000a031916815260200191505b50838103825284818151815260200191508051906020019080838360005b83811015610b1f578082015181840152602081019050610b04565b50505050905090810190601f168015610b4c5780820380516001836020036101000a031916815260200191505b5094505050505060405180910390f35b348015610b6857600080fd5b50610b9560048036036020811015610b7f57600080fd5b8101908080359060200190929190505050611a60565b604051808b8152602001806020018a8152602001806020018060200180602001806020018973ffffffffffffffffffffffffffffffffffffffff1673ffffffffffffffffffffffffffffffffffffffff168152602001881515151581526020018715151515815260200186810386528f818151815260200191508051906020019080838360005b83811015610c37578082015181840152602081019050610c1c565b50505050905090810190601f168015610c645780820380516001836020036101000a031916815260200191505b5086810385528d818151815260200191508051906020019080838360005b83811015610c9d578082015181840152602081019050610c82565b50505050905090810190601f168015610cca5780820380516001836020036101000a031916815260200191505b5086810384528c818151815260200191508051906020019080838360005b83811015610d03578082015181840152602081019050610ce8565b50505050905090810190601f168015610d305780820380516001836020036101000a031916815260200191505b5086810383528b818151815260200191508051906020019080838360005b83811015610d69578082015181840152602081019050610d4e565b50505050905090810190601f168015610d965780820380516001836020036101000a031916815260200191505b5086810382528a818151815260200191508051906020019080838360005b83811015610dcf578082015181840152602081019050610db4565b50505050905090810190601f168015610dfc5780820380516001836020036101000a031916815260200191505b509f5050505050505050505050505050505060405180910390f35b348015610e2357600080fd5b50610f8860048036036080811015610e3a57600080fd5b8101908080359060200190640100000000811115610e5757600080fd5b820183602082011115610e6957600080fd5b80359060200191846001830284011164010000000083111715610e8b57600080fd5b91908080601f016020809104026020016040519081016040528093929190818152602001838380828437600081840152601f19601f82011690508083019250505050505050919291929080359060200190640100000000811115610eee57600080fd5b820183602082011115610f0057600080fd5b80359060200191846001830284011164010000000083111715610f2257600080fd5b91908080601f016020809104026020016040519081016040528093929190818152602001838380828437600081840152601f19601f8201169050808301925050505050505091929192908035906020019092919080359060200190929190505050611de6565b005b348015610f9657600080fd5b506110e760048036036040811015610fad57600080fd5b8101908080359060200190640100000000811115610fca57600080fd5b820183602082011115610fdc57600080fd5b80359060200191846001830284011164010000000083111715610ffe57600080fd5b91908080601f016020809104026020016040519081016040528093929190818152602001838380828437600081840152601f19601f8201169050808301925050505050505091929192908035906020019064010000000081111561106157600080fd5b82018360208201111561107357600080fd5b8035906020019184600183028401116401000000008311171561109557600080fd5b91908080601f016020809104026020016040519081016040528093929190818152602001838380828437600081840152601f19601f820116905080830192505050505050509192919290505050611e68565b005b60035481565b600a5481565b60065481565b6008602052806000526040600020600091509050806000015490806001018054600181600116156101000203166002900480601f0160208091040260200160405190810160405280929190818152602001828054600181600116156101000203166002900480156111ad5780601f10611182576101008083540402835291602001916111ad565b820191906000526020600020905b81548152906001019060200180831161119057829003601f168201915b505050505090806002018054600181600116156101000203166002900480601f01602080910402602001604051908101604052809291908181526020018280546001816001161561010002031660029004801561124b5780601f106112205761010080835404028352916020019161124b565b820191906000526020600020905b81548152906001019060200180831161122e57829003601f168201915b505050505090806003018054600181600116156101000203166002900480601f0160208091040260200160405190810160405280929190818152602001828054600181600116156101000203166002900480156112e95780601f106112be576101008083540402835291602001916112e9565b820191906000526020600020905b8154815290600101906020018083116112cc57829003601f168201915b5050505050908060040154905085565b6101406040519081016040528060055481526020018781526020018681526020018581526020018481526020018381526020018281526020013373ffffffffffffffffffffffffffffffffffffffff16815260200160001515815260200160001515815250600960006005548152602001908152602001600020600082015181600001556020820151816001019080519060200190611399929190611ed1565b506040820151816002015560608201518160030190805190602001906113c0929190611ed1565b5060808201518160040190805190602001906113dd929190611ed1565b5060a08201518160050190805190602001906113fa929190611ed1565b5060c0820151816006019080519060200190611417929190611ed1565b5060e08201518160070160006101000a81548173ffffffffffffffffffffffffffffffffffffffff021916908373ffffffffffffffffffffffffffffffffffffffff1602179055506101008201518160070160146101000a81548160ff0219169083151502179055506101208201518160070160156101000a81548160ff021916908315150217905550905050600560008154809291906001019190505550505050505050565b60028054600181600116156101000203166002900480601f0160208091040260200160405190810160405280929190818152602001828054600181600116156101000203166002900480156115545780601f1061152957610100808354040283529160200191611554565b820191906000526020600020905b81548152906001019060200180831161153757829003601f168201915b505050505081565b60018054600181600116156101000203166002900480601f0160208091040260200160405190810160405280929190818152602001828054600181600116156101000203166002900480156115f25780601f106115c7576101008083540402835291602001916115f2565b820191906000526020600020905b8154815290600101906020018083116115d557829003601f168201915b505050505081565b6000809054906101000a900473ffffffffffffffffffffffffffffffffffffffff1681565b60055481565b60a0604051908101604052806006548152602001848152602001838152602001828152602001600081525060086000600654815260200190815260200160002060008201518160000155602082015181600101908051906020019061168b929190611ed1565b5060408201518160020190805190602001906116a8929190611ed1565b5060608201518160030190805190602001906116c5929190611ed1565b5060808201518160040155905050600660008154809291906001019190505550505050565b6009600082815260200190815260200160002060070160149054906101000a900460ff1615151561171a57600080fd5b6009600082815260200190815260200160002060070160159054906101000a900460ff16151561174957600080fd5b60086000838152602001908152602001600020600401600081548092919060010191905055507fe3354fc97c1de5ea31745a6624ba28e00fde7bf764e0c06d53a139a107bcb369826008600085815260200190815260200160002060010160086000868152602001908152602001600020600201600860008781526020019081526020016000206004015460405180858152602001806020018060200184815260200183810383528681815460018160011615610100020316600290048152602001915080546001816001161561010002031660029004801561186d5780601f106118425761010080835404028352916020019161186d565b820191906000526020600020905b81548152906001019060200180831161185057829003601f168201915b50508381038252858181546001816001161561010002031660029004815260200191508054600181600116156101000203166002900480156118f05780601f106118c5576101008083540402835291602001916118f0565b820191906000526020600020905b8154815290600101906020018083116118d357829003601f168201915b5050965050505050505060405180910390a15050565b60045481565b6007602052806000526040600020600091509050806000018054600181600116156101000203166002900480601f0160208091040260200160405190810160405280929190818152602001828054600181600116156101000203166002900480156119b85780601f1061198d576101008083540402835291602001916119b8565b820191906000526020600020905b81548152906001019060200180831161199b57829003601f168201915b505050505090806001018054600181600116156101000203166002900480601f016020809104026020016040519081016040528092919081815260200182805460018160011615610100020316600290048015611a565780601f10611a2b57610100808354040283529160200191611a56565b820191906000526020600020905b815481529060010190602001808311611a3957829003601f168201915b5050505050905082565b6009602052806000526040600020600091509050806000015490806001018054600181600116156101000203166002900480601f016020809104026020016040519081016040528092919081815260200182805460018160011615610100020316600290048015611b125780601f10611ae757610100808354040283529160200191611b12565b820191906000526020600020905b815481529060010190602001808311611af557829003601f168201915b505050505090806002015490806003018054600181600116156101000203166002900480601f016020809104026020016040519081016040528092919081815260200182805460018160011615610100020316600290048015611bb65780601f10611b8b57610100808354040283529160200191611bb6565b820191906000526020600020905b815481529060010190602001808311611b9957829003601f168201915b505050505090806004018054600181600116156101000203166002900480601f016020809104026020016040519081016040528092919081815260200182805460018160011615610100020316600290048015611c545780601f10611c2957610100808354040283529160200191611c54565b820191906000526020600020905b815481529060010190602001808311611c3757829003601f168201915b505050505090806005018054600181600116156101000203166002900480601f016020809104026020016040519081016040528092919081815260200182805460018160011615610100020316600290048015611cf25780601f10611cc757610100808354040283529160200191611cf2565b820191906000526020600020905b815481529060010190602001808311611cd557829003601f168201915b505050505090806006018054600181600116156101000203166002900480601f016020809104026020016040519081016040528092919081815260200182805460018160011615610100020316600290048015611d905780601f10611d6557610100808354040283529160200191611d90565b820191906000526020600020905b815481529060010190602001808311611d7357829003601f168201915b5050505050908060070160009054906101000a900473ffffffffffffffffffffffffffffffffffffffff16908060070160149054906101000a900460ff16908060070160159054906101000a900460ff1690508a565b336000806101000a81548173ffffffffffffffffffffffffffffffffffffffff021916908373ffffffffffffffffffffffffffffffffffffffff1602179055508360019080519060200190611e3c929190611f51565b508260029080519060200190611e53929190611f51565b50816003819055508060048190555050505050565b604080519081016040528083815260200182815250600760008081526020019081526020016000206000820151816000019080519060200190611eac929190611ed1565b506020820151816001019080519060200190611ec9929190611ed1565b509050505050565b828054600181600116156101000203166002900490600052602060002090601f016020900481019282601f10611f1257805160ff1916838001178555611f40565b82800160010185558215611f40579182015b82811115611f3f578251825591602001919060010190611f24565b5b509050611f4d9190611fd1565b5090565b828054600181600116156101000203166002900490600052602060002090601f016020900481019282601f10611f9257805160ff1916838001178555611fc0565b82800160010185558215611fc0579182015b82811115611fbf578251825591602001919060010190611fa4565b5b509050611fcd9190611fd1565b5090565b611ff391905b80821115611fef576000816000905550600101611fd7565b5090565b9056fea165627a7a72305820fed1c5556960682521dc550eb485e76940cbb5b18fea511d5855f27aaf2b1d3c0029",
  "source": "pragma solidity ^0.5.0;\r\n\r\ncontract Election {\r\n    //model a candidate\r\n    struct Candidate {\r\n        uint id;\r\n        string name;\r\n        string party;\r\n        string Type;\r\n        uint votes;\r\n    }\r\n\r\n    struct Voter {  \r\n        uint id;\r\n        string name;\r\n        uint age;\r\n        string phone;\r\n        string pollingStation;\r\n        string constituency;\r\n        string region;\r\n        address voterAddress; \r\n        bool voted;\r\n        bool authorized;\r\n    }\r\n\r\n    //admin\r\n     struct Admin {\r\n        string email;\r\n        string password;\r\n    }\r\n\r\n    //owner\r\n    address public owner;\r\n\r\n    string public electionName;\r\n    string public description;\r\n    uint public startDate;\r\n    uint public endDate;\r\n\r\n\r\n    uint public votersCount = 0;\r\n\r\n    //candidate count\r\n    uint public candidatesCount = 0;\r\n\r\n    mapping(uint => Admin) public admin;\r\n\r\n    //fetch candidate\r\n    mapping(uint => Candidate) public candidates;\r\n\r\n    //store accounts that has voted\r\n    mapping(uint => Voter) public voters;\r\n\r\n\r\n    event electionUpdated(\r\n         uint id,\r\n        string name,\r\n        string party,\r\n        uint votes\r\n    ); \r\n\r\n    uint public totalVotes;\r\n\r\n    modifier ownerOnly() {\r\n        require(msg.sender == owner);\r\n        _;\r\n    }\r\n\r\n\r\n    constructor () public {\r\n        addCandidate('Nana Addo', 'NPP', 'Presidential');\r\n        addCandidate('John Mahama', 'NDC', 'Presidential' );\r\n        addCandidate('Christian Kwabena Andrews', 'GUM', 'Presidential');\r\n        addCandidate('Ivor Kobina Green', 'CPP', 'Presidential');\r\n        addCandidate('Akua Donkor', 'GPP', 'Presidential');\r\n\r\n        LogAdmin('kyeiyaw437@gmail.com', 'password');\r\n\r\n        // addVoters('Qweku Banie', 25, '0504512117', 'Domeabra', 'Assin North', 'Eastern');\r\n    }\r\n\r\n    function LogAdmin(string memory email, string memory password) public {\r\n        admin[0] = Admin(email, password);\r\n    }\r\n\r\n\r\n    function election(string memory _name,  string memory _description, uint _startDate,  uint  _endDate) public {\r\n        owner = msg.sender;\r\n        electionName = _name;\r\n        description = _description;\r\n        startDate = _startDate;\r\n        endDate = _endDate;\r\n    }\r\n\r\n    function addVoters(string memory  _name,  uint _age, string memory _phone, string memory _pollingStation, string memory  _constituency,  string memory _region) public {\r\n        voters[votersCount] = Voter(votersCount, _name, _age, _phone, _pollingStation, _constituency, _region,  msg.sender, false, false);\r\n        votersCount ++; \r\n    }\r\n\r\n    function authorize(uint id) private {\r\n        require(!voters[id].voted);\r\n        voters[id].authorized = true;\r\n    }\r\n\r\n    function addCandidate (string memory _name, string memory _party,  string memory _type) public {\r\n  \r\n        candidates[candidatesCount] = Candidate(candidatesCount, _name, _party, _type, 0);\r\n        candidatesCount ++;\r\n    }\r\n\r\n    function vote (uint _candidateId, uint _id) public {\r\n\r\n        require(!voters[_id].voted);\r\n        require(voters[_id].authorized);\r\n\r\n        // increase of the vote count of the candidate selected\r\n        candidates[_candidateId].votes ++;\r\n\r\n        // voters[msg.sender].voted = true;\r\n\r\n        emit electionUpdated(_candidateId, candidates[_candidateId].name, candidates[_candidateId].party, candidates[_candidateId].votes);\r\n    }\r\n}",
  "sourcePath": "D:/PROJECTS/WEB DEVELOPMENT/MINE/VotingApp/contracts/Election.sol",
  "compiler": {
    "name": "solc",
    "version": "0.5.0+commit.1d4f565a.Emscripten.clang"
  },
  "schemaVersion": "3.0.1",
  "updatedAt": "2021-08-26T20:08:34.934Z",
  "devdoc": {
    "methods": {}
  },
  "userdoc": {
    "methods": {}
  }
}