{
  "contractName": "Election",
  "abi": [
    {
      "constant": true,
      "inputs": [],
      "name": "candidatesCount",
      "outputs": [
        {
          "name": "",
          "type": "uint256"
        }
      ],
      "payable": false,
      "stateMutability": "view",
      "type": "function",
      "signature": "0x2d35a8a2"
    },
    {
      "constant": true,
      "inputs": [
        {
          "name": "",
          "type": "uint256"
        }
      ],
      "name": "candidates",
      "outputs": [
        {
          "name": "id",
          "type": "uint256"
        },
        {
          "name": "name",
          "type": "string"
        },
        {
          "name": "party",
          "type": "string"
        },
        {
          "name": "votes",
          "type": "uint256"
        }
      ],
      "payable": false,
      "stateMutability": "view",
      "type": "function",
      "signature": "0x3477ee2e"
    },
    {
      "constant": true,
      "inputs": [
        {
          "name": "",
          "type": "address"
        }
      ],
      "name": "voters",
      "outputs": [
        {
          "name": "",
          "type": "bool"
        }
      ],
      "payable": false,
      "stateMutability": "view",
      "type": "function",
      "signature": "0xa3ec138d"
    },
    {
      "inputs": [],
      "payable": false,
      "stateMutability": "nonpayable",
      "type": "constructor",
      "signature": "constructor"
    },
    {
      "anonymous": false,
      "inputs": [
        {
          "indexed": false,
          "name": "id",
          "type": "uint256"
        },
        {
          "indexed": false,
          "name": "name",
          "type": "string"
        },
        {
          "indexed": false,
          "name": "party",
          "type": "string"
        },
        {
          "indexed": false,
          "name": "votes",
          "type": "uint256"
        }
      ],
      "name": "electionUpdated",
      "type": "event",
      "signature": "0xe3354fc97c1de5ea31745a6624ba28e00fde7bf764e0c06d53a139a107bcb369"
    }
  ],
  "bytecode": "0x608060405234801561001057600080fd5b506100946040805190810160405280600981526020017f4e616e61204164646f00000000000000000000000000000000000000000000008152506040805190810160405280600381526020017f4e5050000000000000000000000000000000000000000000000000000000000081525061011c640100000000026401000000009004565b6101176040805190810160405280600b81526020017f4a6f686e204d6168616d610000000000000000000000000000000000000000008152506040805190810160405280600381526020017f4e4443000000000000000000000000000000000000000000000000000000000081525061011c640100000000026401000000009004565b610260565b600080815480929190600101919050555060806040519081016040528060005481526020018381526020018281526020016000815250600160008054815260200190815260200160002060008201518160000155602082015181600101908051906020019061018c9291906101bb565b5060408201518160020190805190602001906101a99291906101bb565b50606082015181600301559050505050565b828054600181600116156101000203166002900490600052602060002090601f016020900481019282601f106101fc57805160ff191683800117855561022a565b8280016001018555821561022a579182015b8281111561022957825182559160200191906001019061020e565b5b509050610237919061023b565b5090565b61025d91905b80821115610259576000816000905550600101610241565b5090565b90565b6103d08061026f6000396000f3fe608060405260043610610057576000357c0100000000000000000000000000000000000000000000000000000000900463ffffffff1680632d35a8a21461005c5780633477ee2e14610087578063a3ec138d146101b5575b600080fd5b34801561006857600080fd5b5061007161021e565b6040518082815260200191505060405180910390f35b34801561009357600080fd5b506100c0600480360360208110156100aa57600080fd5b8101908080359060200190929190505050610224565b604051808581526020018060200180602001848152602001838103835286818151815260200191508051906020019080838360005b838110156101105780820151818401526020810190506100f5565b50505050905090810190601f16801561013d5780820380516001836020036101000a031916815260200191505b50838103825285818151815260200191508051906020019080838360005b8381101561017657808201518184015260208101905061015b565b50505050905090810190601f1680156101a35780820380516001836020036101000a031916815260200191505b50965050505050505060405180910390f35b3480156101c157600080fd5b50610204600480360360208110156101d857600080fd5b81019080803573ffffffffffffffffffffffffffffffffffffffff169060200190929190505050610384565b604051808215151515815260200191505060405180910390f35b60005481565b6001602052806000526040600020600091509050806000015490806001018054600181600116156101000203166002900480601f0160208091040260200160405190810160405280929190818152602001828054600181600116156101000203166002900480156102d65780601f106102ab576101008083540402835291602001916102d6565b820191906000526020600020905b8154815290600101906020018083116102b957829003601f168201915b505050505090806002018054600181600116156101000203166002900480601f0160208091040260200160405190810160405280929190818152602001828054600181600116156101000203166002900480156103745780601f1061034957610100808354040283529160200191610374565b820191906000526020600020905b81548152906001019060200180831161035757829003601f168201915b5050505050908060030154905084565b60026020528060005260406000206000915054906101000a900460ff168156fea165627a7a7230582001a2d90d297c62aeecfe3375ffc34f4d2724432d2f3865048070991692bd30b40029",
  "source": "pragma solidity ^0.5.0;\r\n\r\ncontract Election {\r\n    //model a candidate\r\n    struct Candidate {\r\n        uint id;\r\n        string name;\r\n        string party;\r\n        uint votes;\r\n    }\r\n\r\n    //candidate count\r\n    uint public candidatesCount;\r\n\r\n    //fetch candidate\r\n    mapping(uint => Candidate) public candidates;\r\n\r\n    //store accounts that has voted\r\n    mapping(address => bool) public voters;\r\n\r\n    event electionUpdated(\r\n         uint id,\r\n        string name,\r\n        string party,\r\n        uint votes\r\n    ); \r\n\r\n    constructor () public {\r\n        addCandidate('Nana Addo', 'NPP');\r\n        addCandidate('John Mahama', 'NDC');\r\n    }\r\n\r\n    function addCandidate (string memory _name, string memory _party) private {\r\n        candidatesCount ++;\r\n        candidates[candidatesCount] = Candidate(candidatesCount, _name,  _party, 0);\r\n    }\r\n\r\n    function vote (uint _candidateId) private {\r\n        //record that voter has voted\r\n        require(!voters[msg.sender], 'You have already voted');\r\n\r\n        //increase of the vote count of the candidate selected\r\n        candidates[_candidateId].votes ++;\r\n\r\n        voters[msg.sender] = true;\r\n\r\n        emit electionUpdated(_candidateId, candidates[_candidateId].name, candidates[_candidateId].party, candidates[_candidateId].votes);\r\n    }\r\n}",
  "sourcePath": "D:/PROJECTS/WEB DEVELOPMENT/MINE/VotingApp/contracts/Election.sol",
  "compiler": {
    "name": "solc",
    "version": "0.5.0+commit.1d4f565a.Emscripten.clang"
  },
  "schemaVersion": "3.0.1",
  "updatedAt": "2021-07-13T00:09:20.528Z",
  "devdoc": {
    "methods": {}
  },
  "userdoc": {
    "methods": {}
  }
}